:020000040800F2
:10000000D80B0020C5000008150C0008790B00086B
:1000100000000000000000000000000000000000E0
:10002000000000000000000000000000DF110008D8
:100030000000000000000000790D000861130008B6
:10004000F5000008890C0008F5000008F50000081C
:10005000F5000008F5000008F5000008F5000008AC
:1000600000000000F5020008F5000008F500000897
:10007000F50000081D140008F50000084D140008E4
:10008000BD1400080000000000000000E11300089B
:1000900000000000F5000008F5000008F500000869
:1000A00000000000F500000800000000F500000856
:1000B0000348854600F048F80048004785180008C6
:1000C000D80B00200C4880F308880C480168090E02
:1000D0000B4A914205D10B480B4901600B480C4972
:1000E00001600C4880470C480047FEE7FEE7FEE74A
:1000F000FEE7FEE7FEE70000D80B0020040000004A
:100100001F00000018100240010000000000014024
:100110000000000065130008B100000830B50B4670
:10012000014600202022012409E00D46D5409D42D1
:1001300005D31D469540491B254695404019154657
:10014000521E002DF1DC30BD064C0125064E05E0A7
:10015000E36807CC2B430C3C98471034B442F7D3E8
:10016000FFF7AAFFD8180008F818000870B58C1817
:100170000578401C6B075B0F01D10378401C2A11E6
:1001800006D10278401C03E006780E70401C491C22
:100190005B1EF9D12B0705D40023521E0DD40B7022
:1001A000491CFAE70378401CCB1A921C03E01D7827
:1001B0000D70491C5B1C521EF9D5A142D8D30020FA
:1001C00070BD10B50B460021846A1C43846200BFD9
:1001D0000C4614432146416110BD002904D08268B9
:1001E00001231A43826003E0826802231A4382607B
:1001F0007047000010B504460548844207D101212C
:10020000401500F031FE0021601500F02DFE10BDFC
:100210000024014030B501460020002200238C68F4
:100220000125ED072C438C6000BF8C68E30FDB07D2
:10023000521C0F242403A24201D0002BF5D18C685C
:10024000E40FE407002C01D1086C00E0002030BD71
:1002500030B5024600200023012424060C40002C67
:1002600005D0946801252D06AC43234600E01368B1
:100270001C460C40002C01D0012000E0002030BDC5
:1002800010B50022C268084B1A400C7964030B6851
:1002900023438C682343CC6823430C6923434C6974
:1002A00023431A43C26010BD03D2FFFF002905D0CB
:1002B000C26801231B031A43C26004E0C268012321
:1002C0001B039A43C2607047002101600171816085
:1002D000C16001614161704710B501F0BBFA01F0E6
:1002E00039FA01F071FA01F0BDF800F04DFB00F0B1
:1002F00099FA10BD10B5022000F0E4F800280AD0E9
:1003000005490020085E054908600120044908707D
:10031000022000F007F810BD4801002080000020F6
:100320000A000020012109070140002902D00349E9
:10033000486001E002494860704700000004024044
:1003400000000240002904D0026801231A43026021
:1003500003E00268014B1A4002607047FEFF000094
:100360000168554A114001600021016041608160CF
:10037000C1605249884208D15049083949680F2262
:1003800011434E4A083A516094E04C491431884276
:1003900008D14A4908394968F0221143474A083AC6
:1003A000516087E045492831884209D143490839DD
:1003B00049680F2212021143404A083A516079E01D
:1003C0003E493C31884209D13C49083949680F22ED
:1003D00012031143394A083A51606BE037495031F2
:1003E000884209D13549083949680F22120411435E
:1003F000324A083A51605DE030496431884209D19F
:100400002E49083949680F22120511432B4A083A30
:1004100051604FE029497831884209D1274908398C
:1004200049680F2212061143244A083A516041E0FC
:100430002349884208D12249083949680F221143CB
:100440001F4A083A516035E01D491431884208D1ED
:100450001B4908394968F0221143194A083A51608A
:1004600028E017492831884209D1154908394968D7
:100470000F2212021143124A083A51601AE0104941
:100480003C31884209D10E49083949680F221203CC
:1004900011430B4A083A51600CE009495031884237
:1004A00008D10749083949680F2212041143044A48
:1004B000083A516070470000FEFF0000080002404B
:1004C0000804024001460020002201231B070B40C4
:1004D000002B02D0064B1A6801E0064B1A6813463F
:1004E0000B40002B01D0012000E0002070470000ED
:1004F0000004024000000240002A03D003680B43BE
:10050000036002E003688B430360704710B500226C
:1005100002680D4B1A400C6A8B6823430C69234315
:100520004C6923438C692343CC6923434C6A23439E
:100530008C6A23431A430260CB6843600B68836074
:100540004B68C36010BD00000F80FFFF00210160F9
:1005500041608160C160016141618161C16101628D
:10056000416281627047000000240AE000F028FB2D
:1005700000BF094801F04CF87D21C9008842F8D33A
:10058000641C142CF2DB05E004480078002801D13B
:1005900000F040FAF8E7000000040040CA00002024
:1005A00004E0411E08B2002800DC00E0F9E700BFCB
:1005B000704700000149C8607047000000200240F9
:1005C00030B5044604250B20000400F08FF80546E2
:1005D000042D17D10C480069022108430A4908611B
:1005E00008464461006940210843074908610B201F
:1005F000000400F07BF805460348006902218843A7
:1006000001490861284630BD0020024004200D4900
:10061000C968C907C90F002901D0012010E00949A4
:10062000C96810221140002901D0022008E00549C4
:10063000C96804221140002901D0032000E00420F1
:1006400070470000002002400348006980210843F1
:1006500001490861704700000020024078B5064655
:100660000C460425002000900B20000400F03EF80A
:100670000546042D24D1134800690121084311497E
:10068000086134800B20000400F030F80546042D8A
:1006900010D1B01C0090200C009908800B200004A1
:1006A00000F024F805460748006940084000054965
:1006B000086105E0034800694008400001490861FD
:1006C000284678BD00200240054800698021084086
:1006D000002804D003480249486003484860704736
:1006E0000020024023016745AB89EFCD10B50346DA
:1006F0000424FFF78BFF044603E0FFF787FF04465F
:100700005B1E012C01D1002BF7D1002B00D1052459
:10071000204610BD10B51149114800F029F80F48C6
:1007200000780E494978090240180C498978090473
:1007300040180A49C978090640180A4908600A4859
:1007400000680A4908600846006806490968884246
:1007500001D1012400E00024204610BD1800002033
:100760007C0700201C0000200070000820000020F2
:100770002A4A126812790270284A1268127A427064
:10078000264A126852788270244A1268D278C2705F
:10079000224A126812780271204A12685279427114
:1007A0001E4A1268927A82711C4A1268D279C2710A
:1007B0001A4A1268527A0272184A12689278427281
:1007C000164A1268D27A8272144A12689279C272F8
:1007D000134A1268127803785A400A70104A126855
:1007E000527883795A40C3795A40037A5A40437AFF
:1007F0005A40837A5A40C37A5A404A70084A12686B
:10080000927803795A408A70054A1268D2788378C0
:100810005A4043785A40CA70704700000C000020CC
:10082000140000201CB501212320400400F0DCFA54
:10083000684600F0C9F880200090012168460171E7
:100840000021817141710221C17169460920C006F0
:1008500000F052F81CBD00001CB50121232040040B
:1008600000F0C2FA684600F0AFF801208002009064
:10087000012168460171002181714171C171694690
:100880000920C00600F038F80820009000216846D2
:10089000017141710121C1716946164800F02CF8BF
:1008A0001020009000216846017141710121C17141
:1008B0006946104800F020F80120C0020090012194
:1008C00068460171002181714171C1716946092039
:1008D000C00600F011F80120400200900021684697
:1008E000017141710121C17169460920C00600F002
:1008F00003F81CBD00040048F0B50A46002100239F
:10090000002400BF3DE001258D402B4615681D40A9
:100910002C469C4234D11579012D02D01579022D37
:1009200016D185684F000326BE40B54385605579D2
:100930004E00B540866835438560858801268E4027
:10094000B5438580858896798E40B6B235438580DB
:1009500005684F000326BE40B543056015794E007B
:10096000B540066835430560C5684F000326BE40A4
:10097000B543C560D5794E00B540C6683543C560FE
:10098000491C1029BFD3F0BD1CB50121480400F05B
:100990002BFA01200090012168460171002181712C
:1009A0000121C1710321417169460920C006FFF789
:1009B000A3FF1CBD02460020138A0B40002B01D070
:1009C000012000E00020704704490160002101710E
:1009D0000121417100218171C1717047FFFF000049
:1009E000002A01D0816100E00185704710B5102117
:1009F0000748FFF7DFFF002800D110BD1021044891
:100A0000FFF7D8FF012800D1F7E700BFF5E70000A6
:100A10000004004810B5002400F072F900BF09E09E
:100A2000A0003F4908583F49096840183D490860FF
:100A3000601CC4B2082CF3DB00203B490860394835
:100A40000068C00808600020364908603648006821
:100A5000364988420BD30020354908703548007864
:100A6000401C3449087000203349087010E02E48BB
:100A700000682E49643988420AD801202C49087040
:100A80002D480078401C2C49087000202949087026
:100A900028480078032805DD0020284908702549EA
:100AA000087009E024480078032805DD0120234967
:100AB00008700020204908701B4800681B4932312B
:100AC000884203D801201E49087008E016480068D3
:100AD00016496431884202D3002019490870184829
:100AE000007800F07DFB00F033F8164908700846E6
:100AF0000078124909784840002801D1012000E01F
:100B0000002011490870FFF771FF1049087008466E
:100B100001780D48007800F077FB00F051F810BD27
:100B2000880700202C000020D4000020280A0000A4
:100B3000D0000020D2000020D10000204000002082
:100B4000D90000204100002043000020D8000020F0
:100B500010B508210748FFF72DFF002800D110BD70
:100B600008210448FFF726FF012800D1F7E700BF5E
:100B7000F5E700000004004800BFFEE710B55D2067
:100B800000F0CCFA002801D000F07EF9074800F010
:100B90002BF8042000F01CF87D20000100F01EF866
:100BA00000F00EF800F004F810BD000055550000EC
:100BB0000148024908607047CCCC0000003000407A
:100BC0000148024908607047AAAA000000300040AE
:100BD00001494860704700000030004001498860CA
:100BE0007047000000300040014908607047000075
:100BF0000030004010B50446FFF766FD3520FFF7D2
:100C0000D9FC2046FFF7DCFC3520FFF7D3FCFFF7CB
:100C10001BFD10BD7047000000218278002A27D0FC
:100C2000184A03231B02D21803789B109B00D1584B
:100C300002789207D30EFF229A400B46934319463F
:100C400042789207120E03789B07DB0E9A401143FD
:100C50000C4A03231B02D21803789B109B00D1502F
:100C60000278D306DB0E01229A40064B1A6007E099
:100C70000278D306DB0E01229A40024B80331A60C1
:100C80007047000000E100E010B5042000F066F8B5
:100C9000002803D001200349087002E00020014928
:100CA000087010BDCA00002001200921C906886112
:100CB00088618861886188618861886188618861EC
:100CC00088618861886188618861886188618861DC
:100CD00088618861886188618861886188618861CC
:100CE00088618861886188618861886188618861BC
:100CF0008861886101490881704700002000004830
:100D000010B500240021124800F098FC15E01148AD
:100D10008068042108430F49886000BF0D4880683F
:100D2000102108400128F9D00A48403002682046C6
:100D3000611CCCB2800008490A50082CE7DB00BFD8
:100D4000034800F065FCF028FAD3FFF7ADFF10BDB3
:100D500000040040002401408807002001460020D4
:100D6000044A52680A40002A01D0012000E0002015
:100D700070470000007000407047000010B509483F
:100D800000680949086008460068401C002805D131
:100D900000F024FA0549034800F09AFC3220FFF7DE
:100DA000FFFB10BD005000082800002005050000D2
:100DB0000C4949680122920391430A4A5160114645
:100DC000496882B21143074A51601146096B921576
:100DD0009143044A11631146096B020C1143014A05
:100DE0001163704700100240002905D0054A52697E
:100DF0000243044B5A6104E0024A52698243014BA8
:100E00005A61704700100240002905D0054AD26996
:100E10000243044BDA6104E0024AD2698243014B87
:100E2000DA61704700100240002905D0054A1269B6
:100E30000243044B1A6104E0024A12698243014BE7
:100E40001A61704700100240002905D0054A9269D6
:100E50000243044B9A6104E0024A92698243014BC7
:100E60009A61704700100240002905D0054AD268F7
:100E70000243044BDA6004E0024AD2688243014B29
:100E8000DA607047001002400348406A01210906F9
:100E900008430149486270470010024010B5012123
:100EA0000905481100F07AF9012000F063F90120EA
:100EB0000006FFF77DFF00BF192000F02FF9002882
:100EC000FAD0022000F07CF900BF00F04BF90828AE
:100ED000FBD110BDFEB5044600250026002002907F
:100EE000019000900027864840680C210840054684
:100EF000002D06D0042D07D0082D08D00C2D2CD1A4
:100F000028E0804820602BE07E48206028E07C4874
:100F100040680F218904084006467948406803214B
:100F2000C90308400290B00C861C0298002803D127
:100F30007548374647430BE07148C06A0007000F09
:100F4000401C01906F480199FFF7E8F8704307468D
:100F5000276005E06D48206002E06A48206000BF1D
:100F600000BF67484068F021084005462D096848E1
:100F7000405D009020680099C8406060604840680B
:100F800007210902084005462D0A6148405D00908E
:100F900061680098C140A1605948006BFF21013190
:100FA0000840884202D05B48E0600DE05448406849
:100FB000012189030840884203D0A0684008E0600E
:100FC00002E0A0688008E0604D48006B40210840C6
:100FD000402802D05048206102E00120C003206177
:100FE0004748006B10210840102802D04548606136
:100FF00001E0206860614248006B8007800F002894
:1010000002D1A068A06119E03D48006B8007800F05
:10101000012802D12068A06110E03948006B8007E8
:10102000800F022802D18003A06107E03448006BE2
:101030008007800F032801D13248A0613048006B3F
:10104000032109040840002802D1A068E06120E0E3
:101050002B48006B03210904084001210904884240
:1010600002D12068E06114E02548006B03210904E7
:10107000084001214904884202D18010E06108E063
:101080001F48006B032109040840884201D11D4814
:10109000E0611B48006B032189040840002802D14D
:1010A000A068206220E01648006B032189040840F4
:1010B00001218904884202D12068206214E010488E
:1010C000006B0321890408400121C904884202D130
:1010D0000011206208E00A48006B032189040840DF
:1010E000884201D1074820620548006B80210840F2
:1010F000802802D00548606200E06762FEBD000003
:101100000010024000127A0000093D00006CDC0271
:1011100038010020809FD5001280000010B50246E3
:101120000021002300205111002902D10C4C23681A
:101130000BE0012902D10A4C236A06E0022902D100
:10114000074C636A01E0064C636BD106C90E0124AB
:101150008C401C40002C01D0012000E0002010BD7C
:1011600000100240024840680C210840704700000F
:1011700000100240002807D0074909680122120622
:101180001143054A116006E003490968012212066D
:101190009143014A1160704700100240074A5268AB
:1011A0007B23DB039A43054B5A601A465268034679
:1011B0000B431A43014B5A60704700000010024075
:1011C00001460020044A50688008800002460A4315
:1011D0001046014A50607047001002407047704747
:1011E00010B50446002C06D00122D1020920C00609
:1011F000FFF7F6FB06E000220121C9020920C00624
:10120000FFF7EEFB10BD000070B504460D46002D43
:1012100025D0012C0AD11A480088002806D10122C5
:1012200091020920C006FFF7DBFB28E001201449EA
:10123000088014480088401C12490880084600882D
:10124000DC281CDD0022012189020920C006FFF7ED
:10125000C7FB00200A4908800A4908800FE0012CDA
:1012600006D1012291020920C006FFF7B9FB06E072
:101270000022012189020920C006FFF7B1FB70BDE1
:10128000CE000020CC0000200CB500200190009082
:10129000314800680121090408432F49086000BF54
:1012A0002D48006801214904084000900198401C25
:1012B00001900098002804D1052109030198884273
:1012C000EED125480068012149040840002802D0D9
:1012D0000120009001E0002000900098012839D101
:1012E00011201E4908601C4840681B494860084698
:1012F00040684860084640687F21C9038843164912
:1013000048600846406811210904084312494860B2
:10131000084600680121090608430F49086000BF1C
:101320000D4800680121490608400028F8D00A4805
:1013300040688008800008494860084640680221EB
:1013400008430549486000BF034840680C21084035
:101350000828F9D10CBD0000001002400020024016
:101360007047000010B51B48006801210843194967
:101370000860084640681849084016494860084611
:1013800000681649084013490860084600680121B2
:10139000890488430F490860084640683F210904D2
:1013A00088430C4948600846C06A00090001C862C9
:1013B0000846006BFF2154318843064908630846FC
:1013C000406B40084000486300208860FFF75CFFE6
:1013D00010BD0000001002400CB8FF08FFFFF6FE31
:1013E00010B501210B4800F016F9002810D00A486A
:1013F0000088401C08490880084600880A2803DB4A
:101400000020088000F066FA0121024800F06DF823
:1014100010BD000000200040A800002010B50121F0
:10142000094800F0F8F8012803D10121064800F02E
:1014300059F80421044800F0EEF8002803D00421F4
:10144000014800F04FF810BD002C014010B50121FB
:10145000880700F0E0F8002803D00121880700F099
:1014600041F810BD1FB501210220FFF7CDFC10216E
:10147000684601700121817004214170FFF7CCFBA7
:101480000C4800F043F801A800F018F90021684664
:101490008181C18008480290012168468180002135
:1014A000817301A9034800F0CBF80121014800F045
:1014B0001FF81FBD000400407017000010B5012187
:1014C000074800F0A8F8002809D00122802109204F
:1014D000C006FFF785FA0121014800F006F810BDAB
:1014E00000040040CA4302827047CA430282704728
:1014F000002904D0028801231A43028003E00288F5
:10150000014B1A4002807047FEFF000010B50446F0
:101510003748844208D10121C014FFF7A5FC0021FF
:10152000E014FFF7A1FC62E001208007844208D1AB
:1015300001210846FFF778FC00210120FFF774FC29
:1015400055E02C48844208D101210220FFF76CFCB1
:1015500000210220FFF768FC49E02748844208D1B7
:1015600001211020FFF760FC00211020FFF75CFC38
:101570003DE02248844208D101212020FFF754FC9D
:1015800000212020FFF750FC31E01D48844208D1A3
:1015900001218015FFF748FC0021A015FFF744FC4E
:1015A00025E01848844209D101210804FFF75CFCBA
:1015B000002101200004FFF757FC18E01248844284
:1015C00009D101214804FFF74FFC0021012040040C
:1015D000FFF74AFC0BE00D48844208D10121880442
:1015E000FFF742FC002101208004FFF73DFC10BD05
:1015F000002C014000040040001000400014004096
:1016000000200040004001400044014000480140EB
:101610000146486A704730B5024600200023002486
:10162000158A0D402B4695890D402C46002B03D082
:10163000002C01D0012000E0002030BD4162704745
:1016400000220288154B984206D001239B0798423E
:1016500002D0134B984203D1124B1A404B881A43C5
:10166000114B984203D0114B1A400B891A43028048
:101670004B68C3620B880385084B984208D00C4B1B
:10168000984205D00B4B984202D00B4B984201D1A7
:101690008B7A03860123838270470000002C01406F
:1016A000000400408FFF000000100040FFFC00001D
:1016B0000040014000440140004801400021C9436E
:1016C00041600021018001814180817270470000EA
:1016D00070B504460E46254620680C4908600BE0AC
:1016E000241D601B01218902884202D92846FFF788
:1016F00081FA20680549086004480068401C0028F9
:10170000EED13146204600F003F870BD34010020D0
:1017100070B504460D46FEF7D7FF3520FEF74AFFA9
:1017200029462046FEF79AFF3520FEF743FFFEF7D5
:101730008BFF70BD02E008C8121F08C1002AFAD151
:1017400070477047002001E001C1121F002AFBD141
:101750007047000000B587B001214802FFF774FB15
:101760001748FEF747FD01A8FEF7AEFD00206946C9
:10177000087205900190069001A91148FEF780FDBE
:1017800001210F48FEF792FD002204210C48FEF7CC
:1017900018FD0B48FEF73EFD01210948FEF71DFD2F
:1017A00000BF01210648FEF753FD0028F9D000BF15
:1017B00004490348FEF74CFD0028F9D007B000BDEE
:1017C000002401400100000100B58DB00121084650
:1017D000FFF70AFB0921684601710121817100218F
:1017E000417101A8FFF718FA1748FEF7B9FD02A8E2
:1017F000FEF7ACFE01200590002004900C901348E9
:1018000003900120800209908020079020200A90F8
:101810000F48029080150890002006900120400398
:101820000B9002A90848FEF771FE0122022106482A
:10183000FEF762FE0220FEF775FD01210248FEF769
:1018400081FD0DB000BD00000800024048010020ED
:10185000402401401CB501214804FFF7C5FA684641
:10186000FFF7B2F8042000900321684601710021BF
:10187000817141710121C17169460920C006FFF7DC
:101880003BF81CBD10B5FFF709FBFEF7E5FFFEF7BF
:1018900023FD0D48FFF71EFB0C48FEF781FEFFF706
:1018A0006DF9FEF737FF0A490870084600780028EE
:1018B00004D0FFF763FAFEF757FE02E000E000BF36
:1018C000FDE7002010BD0000540700208813000031
:1018D0000B00002070470000F818000800000020EE
:1018E000480100006C010008201900084801002090
:1018F000900A000044170008C1200AACF7FF1F43FC
:10190000191019100280204BF4010401140B10FF70
:101910000F0A01742D0102030404050006070809DB
:04000005080000B13E
:00000001FF
